:0200000001807D
:02000B0021EAE8
:02001B0021C6FC
:1000800075817075B00678207608087602087608C3
:10009000087605087609087605087603087602755D
:1000A0008916758DD8758BF0D28ED2AB758CF075A4
:1000B0008AF0D28CD2A9D2AF75280075290075308C
:1000C0000011F380FC80FEE5306004782501D178D2
:1000D00027314975B0FFE5B0D2E6F460EA22E53099
:1000E0006004782501E87827314975B0FFE5B0D282
:1000F000E6F42211C7603F510B30E318510B11DEBB
:1001000070FA753000E5280404F528C3940840020D
:10011000F528213630E714510B11DE70FA752901EC
:10012000E5287005E530F4F530213630E408510B50
:1001300011DE70FA2136E528600EE529600AC374E5
:10014000289528F80675290022900212790075B0CA
:1001500006E693F590E944F8F5B051040918B9069C
:10016000ED22C3E520940A4004F5200521C3E521D2
:1001700094094004F5210522C3E522940A4004F5C0
:10018000220523C3E52394064004F5230524C3E593
:1001900024940A4004F5240525C3E525940640046B
:1001A000F5250526C3E526940A4004F5260527C350
:1001B000E5279402400DC3E5269404400675270008
:1001C00075260021C522C0E0C0D088E0C0E089E0EB
:1001D000C0E07821E62401F67590003162D0E0A9F4
:1001E000E0D0E0A8E0D0D0D0E032C0E0C0D088E0DD
:1001F000C0E089E0C0E0D0E0A9E0D0E0A8E0D0D045
:10020000D0E032327FFA0000DFFC227F1F0000DFE7
:0D021000F5223F065B4F666D7D077F6FFF97
:00000001FF
